:020000040800F2
:1080000008CD002009820008EBA30008899E000823
:10801000E9A30008898A000881B400080000000074
:108020000000000000000000000000006581000862
:10803000A193000800000000A98100082550010854
:10804000238200082382000823820008238200087C
:10805000238200082382000823820008238200086C
:10806000238200082382000823820008238200085C
:10807000238200082382000823820008238200084C
:10808000238200082382000823820008238200083C
:108090008D8A0008238200082382000823820008BA
:1080A000238200082382000823820008238200081C
:1080B00001AC000823820008238200082382000804
:1080C00023820008238200082382000823820008FC
:1080D00023820008F5B200082382000823820008EA
:1080E0002382000823820008238200080000000089
:1080F0000000000000000000000000000000000080
:108100000000000000000000238200082382000815
:1081100023820008238200082382000823820008AB
:10812000238200082382000823820008238200089B
:108130002382000831960008238200082382000869
:10814000238200082382000823820008238200087B
:10815000DFF80CD000F0E2FA0048004715FC0008F8
:1081600008CD0020204B19680868B0E8F00F80F3B4
:108170000988BFF36F8F4FF0000080F311884EF035
:108180000D0E70470000000006480068006880F38C
:10819000088862B661B6BFF34F8FBFF36F8F00DF01
:1081A00000BF00BF08ED00E0EFF30980BFF36F8F61
:1081B0000D4B1A6820E9F00F106008B54FF0100061
:1081C00080F311880CF0A0FE4FF0000080F31188BE
:1081D000BDE8084019680868B0E8F00F80F3098826
:1081E000BFF36F8F704700BFE80C0020EFF31180E2
:1081F0004FF0100181F31188704780F311887047A8
:10820000EFF30580704700000648804706480047A6
:10821000FEE7FEE7FEE7FEE7FEE7FEE7FEE7FEE736
:10822000FEE7FEE761AA0008518100082DE9F05F32
:108230000546002092469B468846064681464024D5
:108240001BE0284641464746224600F09EF853462A
:108250005A46C01A914110D311461846224600F0E2
:1082600085F82D1A67EB01084F46224601200021B0
:1082700000F07CF817EB00094E41201EA4F1010428
:10828000DFDC484631462A464346BDE8F09F40EAD7
:1082900001039B0703D009E008C9121F08C0042A84
:1082A000FAD203E011F8013B00F8013B521EF9D26B
:1082B0007047D2B201E000F8012B491EFBD2704793
:1082C0000022F6E710B513460A4604461946FFF7A2
:1082D000F0FF204610BD30B505462A460B4612F881
:1082E000010B13F8014B08B1A042F8D01CB10028D3
:1082F00002D06D1CF1E7284630BD421C10F8011B6E
:108300000029FBD1801A704730B50446002003468F
:1083100000E05B1C934203D2E05CCD5C401BF8D0D4
:1083200030BD30B505460020034600E05B1C93429B
:1083300005D2EC5CC85C201A01D1002CF6D130BD0E
:1083400030B50B46014600202022012409E021FA25
:1083500002F59D4205D303FA02F5491B04FA02F522
:108360002844151EA2F10102F1DC30BD202A04DBF5
:10837000203A00FA02F1002070479140C2F1200338
:1083800020FA03F3194390407047202A04DB203A77
:1083900021FA02F00021704721FA02F3D040C2F125
:1083A000200291400843194670472DE9FE4F804650
:1083B00081EA0300C00F0C46009021F0004123F039
:1083C0000045B8EB0200A94105D24046214690463F
:1083D0001C460B46024623F00040104347D0270DB1
:1083E000C7F30A00C3F30A510290401A01904028D3
:1083F0006BDAC3F3130040F4801B0098924620B15F
:108400000023D2EB030A63EB0B0B01985946C0F132
:1084100040025046FFF7AAFF06460D465046594611
:10842000019A00F08DF910EB08006141002487EA01
:10843000115284EAE7731A4340D0009A62B3019A5A
:10844000012A4FEA075215DC001B61EB02014FF0D5
:10845000004202EA0752CDE90042001C41F58011BA
:1084600032462B4600F08DF903B0BDE8F08F404650
:108470002146F9E7001B61EB0201001C41F5801366
:1084800000185B412018A2F5001747EB030140EAF2
:10849000D570B6196D4111E06D084FEA360645EA10
:1084A000C0754FEA0752001B61EB0201001C41F549
:1084B000801149084FEA30000019514132462B46DD
:1084C00003B0BDE8F04F00F04DB900980122400024
:1084D0000023D0EB020263EBE073009821464FEAE1
:1084E000E074B8EB000061EB0401E9E783F00043BE
:1084F0005BE781F0004158E72DE9FE4F81EA030474
:1085000004F0004421F0004100944FF0000B23F0F0
:10851000004350EA01045ED052EA03045BD0C3F387
:108520000A54C1F30A552C44A4F2F3340194A0FB7D
:108530000254C1F3130141F48011C3F3130343F454
:10854000801301FB024400FB034E840A970A44EAAD
:10855000815447EA8357A4FB076802958D0A05FBFF
:1085600007854FEA932C04FB0C542705029D4FEA24
:10857000065847EA1637B5EB08056EEB070C870E71
:10858000920E47EA811742EA8312A7FB0201B6EB7B
:108590000B0164EB00042B0D43EA0C335E1844EB33
:1085A0001C50DA465146E7FB0201C5F313044FEABB
:1085B0000B3343EA14534FEA0432019C43EA0603A7
:1085C000A4F10C040294009CCDE900B400F0D9F8A9
:1085D00003B0BDE8F08F00200146F9E72DE9F04D2A
:1085E00081EA030404F0004B21F0004514464FF0EB
:1085F000000A23F0004150EA050220D054EA0102AB
:108600001DD0C5F30A570246C5F31303C1F3130087
:10861000C1F30A5640F4801543F48013A7EB060813
:10862000101BD64608F2FD3873EB050002D308F1A3
:10863000010801E092185B41B8F1000F03DA002055
:108640000146BDE8F08D00204FF4801106468446B7
:108650000EE0171B73EB050705D3121B63EB050335
:1086600006434CEA010C49084FEA300092185B417E
:1086700050EA0107EDD152EA030012D082EA040069
:1086800083EA0501084305D0101BAB4106D2012245
:10869000002306E000224FF0004302E06FF00102E9
:1086A00053101AEB06004CEB085110EB0A0041EB9B
:1086B0000B01BDE8F04D00F055B8C1F30A52C1F30B
:1086C000130140F2FF3341F480119A4202DA002094
:1086D0000146704740F233439A42A2F2334202DC31
:1086E0005242FFF752BEFFF741BE000030B5041EF4
:1086F00071F1000404DB4FF00044404264EB0101DF
:10870000141E73F1000405DB1C464FF00043524277
:1087100063EB0403994208BF904230BD064C074DFD
:1087200006E0E06840F0010394E807009847103441
:10873000AC42F6D3FFF710FDDC5D0108FC5D0108DB
:10874000202A06DBCB17203A41FA02F043EAE07315
:1087500006E041FA02F3D040C2F120029140084302
:108760001946704710B5141E73F1000408DA401C56
:1087700041F1000192185B411A4301D120F0010040
:1087800010BD2DE9F04D92469B4611B1B1FA81F230
:1087900002E0B0FA80F220329046FFF7E7FD04468F
:1087A0000F4640EA0A0041EA0B0153465A46084385
:1087B00013D0114653EA010019D0C8F140025046C7
:1087C000FFF7E3FD05460E46504659464246FFF781
:1087D000CDFD084305D0012004E020463946BDE820
:1087E000F08D0020054346EAE0762C4337430A9893
:1087F0006305E40AA0EB08000022FD0A44EA47549E
:108800000A3002D500200146E9E701051019694147
:10881000DDE9084500196941BDE8F04DA2E770B5F2
:108820008C1810F8015B15F0070301D110F8013B1B
:108830002A1106D110F8012B03E010F8016B01F8A2
:10884000016B5B1EF9D12B0705D40023521E0DD4FA
:1088500001F8013BFAE710F8013BCB1A921C03E048
:1088600013F8015B01F8015B521EF9D5A142D8D380
:10887000002070BD10B5104C206830B900221421C2
:108880000A200CF003FC206010B1606810B108E011
:108890000AA00CE0002214210A200CF0F7FB606013
:1088A00020B101200CF0D0FBA06010BD0AA0BDE8F3
:1088B000104002F0E7BD00001400002043414E5379
:1088C000656E6451756575652063726561746520B8
:1088D0006661696C6564000043414E526376517570
:1088E00065756520637265617465206661696C6594
:1088F000640000007FB500240125CDE900542E025C
:1089000002942346324618A11B4803940CF056FDEE
:10891000CDE9005402940023324618A11A4803946A
:108920000CF04CFDCDE9005402940023324617A10F
:108930001B4803940CF042FD0220CDE90004029490
:108940000023324617A11A4803940CF037FD032088
:10895000CDE90004029400236A0216A11948039489
:108960000CF02CFD7FBD000043414E53656E645FEB
:108970005461736B00000000F58B000843414E52B8
:1089800063765F5461736B00858B000843414E4FE3
:1089900070656E5F4170705F5461736B0000000022
:1089A000AD8A00084574685F5461736B0000000075
:1089B000A19A00085461736B5F5443505F436C6924
:1089C000656E74008DAD00080FB410B5B4B037AB50
:1089D000C9216846369A02F079FD0A4C00235A1ED6
:1089E0001946A0680CF073FB694607A002F04AFD27
:1089F00000231A461946A0680CF01AFC34B010BCCB
:108A00005DF814FB140000202573000000B587B04A
:108A10004FF0FF3005904FF4407001F02BFD04F053
:108A200035FC00F055FA02F022F902F01FFD68460D
:108A300001F03AFE07A0009902F024FD042205A9E6
:108A40000B4804F0B9FC012802D10AA002F01AFD7B
:108A500007B000BD0D0A535953434C4B5F46726536
:108A60007175656E63793A2564487A0D0A000000D5
:108A700000F003080D0A636C65617220666C616723
:108A8000204661696C0D0A00FEE7000010B5054A3A
:108A90000021054800F024FABDE81040014800F02C
:108AA00059B80000740E00200064004001210848FD
:108AB00009F05EFC0021064809F000FD052104488C
:108AC00009F0FCFC4FF47A7420460CF057F9FBE7F0
:108AD000800A00201FB50121084601F0C5FD1C20B9
:108AE0008DF80C000C208DF80D0000248DF80E4040
:108AF00001208DF80F0003A801F08AFC13481449E7
:108B00000068B0FBF1F0401EADF800004FF6FF70BA
:108B1000ADF80400ADF80240ADF806404FF08044D7
:108B20006946204602F0A8F80121204602F079F8B3
:108B300001221146204602F092F80021204602F060
:108B400098F80121204602F072F81FBD00000020B5
:108B5000A086010010B5094C0146606800280BD0C2
:108B6000002304F114020CF0D0FB6069002803D04C
:108B700003494FF08050086010BD00001400002031
:108B800004ED00E0194D184EA5F114041749002317
:108B90006422143970680CF09AFA0128F6D1208802
:108BA0002880607A022805D00020A870A17AE97098
:108BB000002007E00120F8E722182B18D27A401C89
:108BC0001A71C0B28142F7D801218F0700223846BE
:108BD00002F045F80549064805F022F80122114641
:108BE000384602F03CF8D1E7140000201C0E0020AB
:108BF000800A00200B4D0C4C002364220B4928688E
:108C00000CF065FA0128F7D10849204600F0B0F9C8
:108C10000428F1D101200CF0B1F80449204600F0FD
:108C2000A7F9E9E71400002000640040F40D0020DB
:108C300070B5012188B0480601F016FD14208DF8AA
:108C40001C0001258DF81D5000248DF81E408DF864
:108C50001F5007A801F0DCFB8DF816408DF8174077
:108C600002208DF814008DF812408DF81340062074
:108C7000124EADF8100006948DF8155004A9304638
:108C800000F0B2F88DF80A408DF80B408DF80C50CA
:108C9000ADF80040ADF80440ADF80240ADF8064034
:108CA000ADF808408DF80D50684600F009F8012233
:108CB0000221304600F090F808B070BD006400401A
:108CC000F0B5827A012191402E4A136843F00103E6
:108CD00013602C4B1C331C688C431C60294D067B95
:108CE000294C0C35A6B92E688E432E604688C7885D
:108CF00046EA0746877A04EBC707C7F84066068846
:108D0000878846EA0746877A04EBC707C7F84466B0
:108D1000067B012E12D12E680E432E60867A0568DE
:108D200004EBC6064FEA3545C6F84056867A4568D4
:108D300004EBC6044FEA3545C4F84456114CC57AD5
:108D4000241D002D256806D00D4325600D4C058996
:108D5000143415B104E08D43F7E725688D43256091
:108D60000589012D02D125680D432560407B01282E
:108D700002D1186808431860106820F001001060E4
:108D8000F0BD0000006600400060004038B50121E1
:108D9000092001F075FC4FF48070ADF80000482008
:108DA0000C4C8DF803006946204600F099FF6015D1
:108DB000ADF8000018208DF8030003208DF80200A4
:108DC0006946204600F08CFF01214FF4EA1000F0C4
:108DD000D9FF38BD000C0140002A426901D00A4386
:108DE00000E08A434261704710B50368002223F017
:108DF00002030360036843F0010303604FF6FF734F
:108E000000E0521C4468E40701D19A42F9D142685B
:108E1000D2073ED08A79012A02683CD022F0800233
:108E20000260CA79012A026838D022F0400202604A
:108E30000A7A012A026834D022F0200202604A7ABB
:108E4000012A026830D022F0100202608A7A012AD8
:108E500002682CD022F008020260CA7A012A026855
:108E600028D022F0040202608A78CC78920742EA85
:108E700004620C7942EA04424C79098842EA0452BD
:108E8000491E0A43C261016821F00101016000210D
:108E900014E0002010BD42F08002C1E742F0400221
:108EA000C5E742F02002C9E742F01002CDE742F0E8
:108EB0000802D1E742F00402D5E7491C4268D20714
:108EC00001D09942F9D14068C007E2D1012010BD1C
:108ED00010B5FFF75BFFBDE81040FFF7A9BE00002B
:108EE00010B500EB0113D3F8B04114F00404147270
:108EF000D3F8B04134D0E408C2F80440D3F8B0410C
:108F000004F002045472D3F8B44104F00F049472D4
:108F1000D3F8B441240AD474D3F8B841D472D3F846
:108F2000B841240A1473D3F8B841240C5473D3F80D
:108F3000B841240E9473D3F8BC41D473D3F8BC4128
:108F4000240A1474D3F8BC41240C5474D3F8BC31F3
:108F50001B0E937439B1016941F02001016110BD0C
:108F6000640D1460CAE7C16841F02001C16010BD02
:108F700030B50246002093685B0108D49068000178
:108F800001D5012003E09068C00037D5022002EB34
:108F90000012D2F8803103F00103C2F880310B7A5D
:108FA00073B3D2F880414D681C434B7A43EAC50342
:108FB0001C43C2F880418B7A03F00F038B72D2F806
:108FC000843123F00F03C2F88431D2F884318C7AD3
:108FD0002343C2F88431CB7ACC6843EA0423C2F835
:108FE0008831CB7B096943EA0121C2F88C11D2F8A0
:108FF000801141F00101C2F8801130BD042030BD64
:10900000D2F880314C7A23430C8843EA4453C2F8A7
:109010008031D0E738B50C4605466A4606F078F947
:10902000012806D00848009B21460268074802F044
:1090300029FA02222146284604F06EFE21462846DF
:1090400000F05EF838BD0000E00D0020805D0108F2
:109050001CB5124A12480021517000684EF6602477
:1090600006E0438BA34202D1037E042B13D0C068D9
:109070000028F6D1517000290CD10A48C2788178B5
:10908000CDE9001243780278B0F84A10204601F08A
:1090900017FD00201CBD0121ECE700003E00002070
:1090A000800D0020880E00201CB5124A12480021B5
:1090B000117000684CF2503406E0438BA34202D199
:1090C000037E042B13D0C0680028F6D1117000294C
:1090D0000CD10A48C2788178CDE900124378027831
:1090E00040F25B71204601F0EBFC00201CBD012129
:1090F000ECE700003E000020800D0020440000202E
:10910000F0B587B00746FE208DF814001B4D44F6DD
:1091100020600E46ADF8180029680024491C184844
:10912000296001290FD0022918D0032909D105216E
:10913000384609F0C3F901223146384606F08DFD64
:109140002C6007B0F0BD05A9CDE90141CDE90304CC
:10915000012002234FF4C052009009E006A9CDE996
:109160000141CDE903040220002341F217020090DF
:10917000314638460BF02EFFE3E70000E00D0020FB
:109180001590000830B4D0F89C20D0F8A0404FF0E3
:10919000FF3352F8212024F81130C2F30742012195
:1091A000831883F8B010D0F8AC3030BC11461847A3
:1091B0002DE9F04F9946DDE90A5A4FF0FF3BDDF803
:1091C00024C041E0AB1A5BB20C78002B03DD00BF7A
:1091D00004FA03F403E0C3F1000324FA03F4E6B253
:1091E00002DDC5F1080301E0C2F10803DCB28442EC
:1091F00000D9044605EB0408FF2707FA08F3C5F178
:109200000805EF403B439CF800509E431D4035430A
:109210002244D2B28CF80050072A07D90022B9F1B3
:10922000000F01D05B4600E00123194408F0FF0560
:10923000072D07D90025BAF1000F01D05B4600E0E9
:1092400001239C44001BC0B20028BBD1BDE8F08FB5
:1092500070B5074C05468021204602F072F80028C0
:10926000F9D029462046BDE8704002F005B900005B
:10927000003801407FB5214E002515B1012D38D1B0
:1092800009E01E4805F02CFB01251DA0FFF79CFB03
:10929000FA200BF073FD74685CB1184805F072FB9E
:1092A000200E0090E1B2C4F30743C4F3072219A0D3
:1092B00019E0706A407B05281BD9104805F062FB55
:1092C000214801906FF07F4002902048039003AB4B
:1092D00002AA01A9094806F027FFC6200090002332
:1092E000A822C0211AA0FFF76FFBFA200BF046FD61
:1092F0007FBDFA200BF042FDBFE700003C0E0020CE
:10930000506C6561736520776169742E2E2E0D0A8D
:10931000000000004950206164647265737320612D
:10932000737369676E6564206279206120444843E5
:109330005020736572766572203A25642E25642E5E
:1093400025642E25640D0A00C0A800C6C0A800012F
:10935000444843502074696D656F7574210D0A533C
:109360007461746963204950206164647265737329
:109370003A25642E25642E25642E25640D0A0000EE
:10938000002801D0401EFDD1704700B5010006D075
:1093900042F210721046FFF7F3FF491EFAD100BDEA
:1093A00070470000411C0CD00749B1F900209042E1
:1093B00001D1521E0A80054A00EB4000002102F84C
:1093C00030104FF0FF307047E40D002048C40020FB
:1093D000014948617047000000900240044A00299A
:1093E000D16901D0014300E08143D16170470000A1
:1093F0000090024005490028886902D040F0020030
:1094000001E020F0020088617047000000900240F7
:10941000F0B5104C00234FF0004644F2F057551EB3
:10942000606012E0C3EB431C00EB03140CEB831CE5
:1094300001EB0C1C84E8C010AB4204D204F1100C08
:10944000C4F80CC000E0E0605B1C9342EAD3024920
:10945000C860F0BDD80C002000900240426811B1F5
:1094600022F0004101E042F00041416070470000FD
:1094700005490028886902D040F4005001E020F43A
:10948000005088617047000000900240F0B50F4C1A
:1094900000234FF48016551E206011E0C3EB4317E4
:1094A00000EB031407EB831701EB0717A760266097
:1094B000AB4203D204F11007E76000E0E0605B1C00
:1094C0009342EBD302490861F0BD0000D80C0020A4
:1094D0000090024002680A430260704710B5012103
:1094E0008C03204601F0B4F82046BDE8104000216E
:1094F00001F0AEB801B581B001980090002801D00C
:10950000401EFAE70CBD00000248816941F4801159
:1095100081617047009002402DE9F8430425ADF8C1
:1095200000500324DFF8B8908DF8024018268DF81B
:1095300003606946484600F0D3FB0227ADF800708F
:10954000DFF8A0808DF802408DF803606946404640
:1095500000F0C6FB4FF46050ADF800008DF80240FB
:109560008DF803606946204800F0BAFBADF8007042
:109570008DF802408DF803506946484600F0B0FB74
:109580002020ADF800008DF802408DF803506946A8
:10959000404600F0A5FB4FF4E060ADF800008DF808
:1095A00002408DF803506946104800F099FBA8016D
:1095B000ADF800008DF802408DF80360694648461A
:1095C00000F08EFB0820ADF800008DF8024010205E
:1095D0008DF803006946484600F082FBBDE8F88339
:1095E0000008014000100140000C0140001401403F
:1095F0000148006880687047D80C002006490020A8
:109600004968096811F0802F05D1CA0503D58A057C
:1096100001D5C1F30D407047D80C0020034900204C
:109620000968C90700D0012070470000009002407F
:1096300010B50BF055FB01E000F05CFCFFF7DEFF1E
:109640000028F9D14020FFF7C3FE4FF48030FFF728
:10965000BFFEBDE810400BF051BB00002DE9F0410A
:1096600088B00026754D04460096069628698846FF
:1096700020F01C0701A801F017F871490298714AFF
:109680000144914202D247F0080706E06E490844BF
:109690006E49884201D247F00C072F614FF4004217
:1096A0000021404600F0D2F900282DD06848FFF78D
:1096B00021FF2068B0B3674F06980121401C069037
:1096C000404600F0F9F8400702D40698B842F3D3B8
:1096D0000698B84217D04FF48052002140460696B3
:1096E00000F0B4F900280FD006980121401C069024
:1096F000404600F0E1F8800602D40698B842F3D361
:109700000698B84203D1002008B0BDE8F0811021CE
:109710004046069600F0D0F8410704D54FF40061AA
:10972000216201E008E02662800701D5666113E04E
:109730004FF4804060610FE0206A6169C00840EA30
:10974000510082B20021404600F080F90028DBD0B1
:109750006FF07F40FFF7CEFE29683F480140D4E913
:1097600001021043E26854F8103F1A431043626844
:109770001043A2681043E2681043226910436269F3
:109780001043A2691043E2691043226A1043626ADF
:10979000104308432860F4E90A010843D4E902129F
:1097A000114308432169084361690843A1690843DB
:1097B000E16908436860206AA860606AE860A96996
:1097C0004FF641700140D4E90B021043238D626BC8
:1097D00042EA03421043A26B1043E26B104308437A
:1097E000A861D4E910010843E8611C4A91691C484A
:1097F0000140D4E912031843D4E914352B4318432C
:10980000A36D1843E36D1843236E1843636E18432A
:10981000A36E184308439061D4E91B010843616FAC
:1098200054F8783F19430843616840EA8100A16811
:10983000084340F400001060012065E7008002400A
:1098400000D3CEFEC0E1E40040F1E9FD40787D01A7
:10985000FFFF0F00FFFF04000F8120FF0090024078
:10986000233FDEF8054B8A88184402640A78D1F851
:10987000011042EA0121416470470000008002406B
:1098800005490028086802D040F0040001E020F0FB
:10989000040008607047000000800240054900286D
:1098A000086802D040F0080001E020F008000860DD
:1098B000704700000080024018B500220092124A52
:1098C00013694FF6FF7403F01C0304EAC020184329
:1098D0004FF4F86303EA8111014321F0020040F0E4
:1098E0000100106109480099491C00911169C907DC
:1098F00002D000998142F6D30099814201D1002023
:1099000018BD506980B218BD00800240FFFF0400FE
:1099100070B5114D002319462A681468002C0BDA23
:109920000E4A0B465469240602D580245461936084
:1099300001604160816070BD260407D4E60505D54D
:10994000A60503D5C4F30D4391681B1FD4682C6092
:109950000360C0E9011270BDDC0C002000900240E1
:109960000248016841F00101016070470090024027
:1099700000B50120FFF792FFFFF7C6FD0120FFF7BA
:109980007FFF0120FFF774FD01205DF804EBFFF776
:1099900031BD0021016041608160C16001614161B0
:1099A0008161C161016241628162C162016341639F
:1099B00040228163C0E90F122022C0E91121C16455
:1099C0000165416581658022C165C0E91812816623
:1099D000C16601674167D2048167C0E91F12521056
:1099E0005310C0E921231311C0E92331C0F89410AA
:1099F000C0F89810C0F89C10C0E928121212C0E9F3
:109A00002A125212C0E92C21C0F8B8107047000089
:109A10000C4A11680B68002B01DA00207047C0F374
:109A20000C00486043F030400860074843695B071A
:109A300003D50423436100234360C86810600120FC
:109A400070470000D80C00200090024038B5002379
:109A50000093114B1C694FF6FF7504F01C0405EAD6
:109A6000C02020434FF4F86404EA8111014341F01F
:109A700003005A61186109480099491C009119694D
:109A8000C90702D000998142F6D30099814201D1E1
:109A9000002038BD012038BD00800240FFFF0400D7
:109AA000154C41F288364FF4FA784EF660270025BF
:109AB0000A200BF063F920680A302060FA2802D3EC
:109AC00025600AF099FC60680A306060B04202D3F9
:109AD000656005F05BFAA0680A30A060404502D3DB
:109AE000A56004F02DFBE0680A30E060B842DFD9E1
:109AF000E56004F0BDF9DBE72C00002010B5B0B044
:109B000001217D2000F0BCFD01214FF4E03000F088
:109B100093FD00F06BFCFFF7FFFC01214FF02010DC
:109B200000F030F9012000F0D5F84FF4004000F0CB
:109B300043FE012000F03AFE3D2000F019FE00280F
:109B4000FAD00B2000F02CFE244C0821204600F017
:109B500045F96420FFF719FC0821204600F040F980
:109B60006420FFF712FCFFF7B9FCFFF7F9FE00BF16
:109B7000FFF754FD0128FBD04FF4FA70FFF705FC06
:109B80006846FFF706FF4FF4804100200591CA1098
:109B90000090CDE907024A11CDE90A201190CA02CE
:109BA000CDE920020E9014901390CB0115902590D2
:109BB000269023930420CDE9280280032A90800177
:109BC0002B9040122E912C9001216846FFF746FD04
:109BD00001210348FFF702FC30B010BD000801402E
:109BE000400001000149C8607047000000200240A9
:109BF00070B505464FF43026304600F059F8042879
:109C000011D1094C206940F0020020616561206992
:109C100040F040002061304600F04AF8216941F6EA
:109C2000FD721140216170BD0020024008490420EE
:109C3000CA68D20701D001207047CA68520701D50F
:109C400002207047C968C906FBD503207047000091
:109C5000002002400248016941F080010161704723
:109C600000200240F0B506464FF400570D46384636
:109C700000F01EF804280CD1064C206940F00100C9
:109C800020613580384600F013F82169BA1E114072
:109C90002161F0BD002002400348024941600349B0
:109CA000416070472301674500200240AB89EFCD3A
:109CB00000B50346FFF7BAFF03E000BFFFF7B6FFAA
:109CC0005B1E012803D0002B00D1052000BD002B16
:109CD000F4D1FAE70149C1F8DC00704700002042E6
:109CE000F0B5CA78002502F00F03D20601D58A78B4
:109CF00013430A784FF00F0E12F0FF0F4FF00102DE
:109D00001CD004680F8802FA05F63740B74211D11B
:109D10004FEA850C0EFA0CF724EA070703FA0CF455
:109D20003C43CF78282F02D0482F02D002E0466172
:109D300000E006616D1C082DE4D304600C88FF2C44
:109D40001ED944685FF0000606F1080702FA07F51D
:109D50000F882F40AF420FD14FEA860C0EFA0CF756
:109D6000BC4303FA0CF73C43CF78282F00D1456160
:109D7000CF78482F00D10561761C082EE4D34460CB
:109D8000F0BD0000F0B5144C002801DAE36900E0F2
:109D90006368420D120185B2C0F301579540C0F3CC
:109DA0000346032F05D0C2020AD50322B2409343D3
:109DB00007E023F07062636823F07063636002E081
:109DC000AB4343F0706201B12A43002801DAE2613B
:109DD000F0BD6260F0BD00000000014041617047CD
:109DE00001617047F0B5034640694288986944882C
:109DF00042B10020042611E05D6806EBC207EF5D6A
:109E0000032F01D8FF20F0BD55F83250ED6A2D78B0
:109E10008D42F8D0521C401C92B2C0B2A242EBD983
:109E2000FE20F0BD70B50546D0F83801008818B3A3
:109E300000242E1996F8B0000F2818D02868007852
:109E4000A04214D096F8400140B9D5F8342112B19F
:109E5000214628469047012086F8B00096F8400138
:109E60002146401E86F84001284605F0E5FE641CA8
:109E7000E4B2802CDDD370BDB5F93001FFF792FA62
:109E8000A5F8300170BD000001A001F0FBFAFBE76E
:109E9000486172644661756C745F48616E646C659C
:109EA000720D0A0010B586B005F00CFF06F00EF832
:109EB0000024039404940B48059400F0BBFD0A4869
:109EC0000A490094CDE9011005AB04AA03A908488A
:109ED00006F004F9064806F037F9054806F084F95B
:109EE00006B010BD620F002051F00008E1F000083C
:109EF0003C0E0020014805F013B900003C0E002084
:109F00002DE9FC41074600240E46DDF82080254659
:109F10006846009208F0C4F80146204661F3070045
:109F2000000902281AD1424601A9009800F080F8E1
:109F3000009905460844019900900144081A022836
:109F40000CDB684608F0ACF860F3070404F001008D
:109F50003870684608F0A4F8307001252846BDE83E
:109F6000FC812DE9FC5F8046DDE90EA00024CDE9EF
:109F70000004994617460E462546DDF834B068467B
:109F800008F08EF860F30704200903282DD1C4F3EC
:109F9000C00188F80010C4F34100306004F00100F3
:109FA000387001A9119A009800F042F8009905460E
:109FB0000844019900904418224669460C9808F01C
:109FC0007EF890B10098201A0FD43068002804DD84
:109FD000684608F06BF8A9F800000098211ACAF842
:109FE000001000990125CBF800102846BDE8FC9F21
:109FF0002DE9F8430125002490460E4607460C60E3
:10A00000641C042C10DC424601216846B847012834
:10A010000AD19DF80000316800F07F0202FB0511B3
:10A02000ED0131600006EBD42046BDE8F883000066
:10A03000024B18600248FFF7DBBF0000EC0D002068
:10A040006DD9000810B503460020CA1701EB526411
:10A0500024F07F02891ACAB2E111002902DD00BF93
:10A0600042F080021A5400F10100EEDC10BD000045
:10A07000401C802801DA401C7047B0F5804F01DA9F
:10A08000801C70470349884201DAC01C7047001DDC
:10A0900070470000FFFF1F00F8B50024069E05462C
:10A0A0000090042901DAA01EF8BD62F3071463F3DF
:10A0B000C304062A24F0060000D1801CC1B2684601
:10A0C0000AF058FF02210098FFF7BCFF00990844EE
:10A0D0000090314668460AF053FF0098401BF8BDD7
:10A0E0002DE9F8430746009088461446002510469F
:10A0F00000F082F88146FFF7BBFF404502DDA81E55
:10A10000BDE8F8832E46314666F3070168461031F4
:10A110000AF030FF49460098FFF794FF0099084481
:10A120000090207A04281DD02FA168460AF00EFF67
:10A13000032168460AF01EFFA07E66F3070560F360
:10A140004105E07E08B145F00405680707D594F89D
:10A150003D0060F3C40594F83C0060F34515206CA5
:10A1600040B905E022A168460AF0F0FE0421E0E7CC
:10A17000A06C08B145F08005E06C08B9606D08B1CD
:10A1800045F04005294668460AF0F4FE218B6846F2
:10A190000AF0F6FE04F10C0168460EC90AF0FFFE53
:10A1A000E07E68B12434684694E80E00243C0AF04E
:10A1B000F6FE3034684694E80E00303C0AF0EFFEBC
:10A1C000280605D504F1400168460EC90AF0E7FEED
:10A1D000680605D54C34684694E80E000AF0DFFEA8
:10A1E0000098C01B8CE700004D514973647000005B
:10A1F0004D5154540000000070B50446007A00250B
:10A20000032802D0042802D002E00C2500E00A2531
:10A2100004F10C0007C800F0E0F80544E07EAD1C36
:10A2200078B1243494E80700243C00F0D6F83034A8
:10A23000064694E80700303C00F0CFF8304405446F
:10A240002D1D206C08B9A16C29B1D4E9111200F0C0
:10A25000C4F80544AD1CE06C08B9616D29B1D4E9BE
:10A26000141200F0BAF80544AD1C284670BD08B5BC
:10A27000002300920422FFF70FFF08BD2DE9FC5FC9
:10A280001C46129ECDE90060DDF838B09046DDF83E
:10A2900030A0DDE90F23894607465946204600F0E5
:10A2A00030F80546FFF7E4FE484503DD6FF0010096
:10A2B000BDE8FC9F302168F3C30164F342016AF3F7
:10A2C000000101A80AF056FE29460198FFF7BAFEE0
:10A2D000019908440190DDE90F23594601A80AF0CD
:10A2E0005EFE002C03DD01A80D990AF049FE3246FE
:10A2F00011990198FDF7CBFF019830440190C01BE4
:10A30000D6E770B50E46114604461A463046049DFF
:10A3100000F063F82844801C002C00DD801C70BD18
:10A320002DE9FF4F83B0064610A8894690E88009C2
:10A3300000249246254641463846009600F036F8FD
:10A340000190FFF795FE484503DDA01E07B0BDE86C
:10A35000F08F64F3070480346AF3C30424F006002A
:10A36000801CC1B268460AF005FEDDE90001FFF776
:10A3700069FE009908440090684606990AF000FEBC
:10A380000FE000BF05EB450108EB810090E80E00EF
:10A3900068460AF004FE1BF8251068460AF0EAFD3C
:10A3A0006D1CBD42EEDB0098801BCFE72DE9F0412C
:10A3B00002250F46064600240AE000BF04EB4400D5
:10A3C00007EB800007C800F008F80544641CED1C8A
:10A3D000B442F3DB2846BDE8F08110B510B1FDF7BB
:10A3E0008CFF0146084610BDFEE7704708B53D20CA
:10A3F0008DF8000002208DF8010000208DF8020089
:10A4000001208DF80300684600F002F808BD000046
:10A4100070B50F23C47801780122F4B1144C24687C
:10A42000457804F4E064C4F5E064240AC4F1040649
:10A43000E3408478B5401C402C4301F1E021230126
:10A4400081F80034007800F01F018A404009800044
:10A4500000F1E020C0F8002170BD01F01F00824033
:10A460004809800000F1E020C0F8802170BD0000A4
:10A470000CED00E002490843024908607047000003
:10A480000000FA050CED00E010B508F09DF8002082
:10A4900010BD10B5044605F067F8204605F026F813
:10A4A000002010BD10B5044605F0EAFE204605F078
:10A4B000ABFE002010BD0000D0F80812097869B981
:10A4C00000210A4606E000BFD0F80C3243F82120F4
:10A4D000491CC9B290F805328B42F5D8002070476C
:10A4E00030B401EBC102846802254FF0FF3305EB65
:10A4F0004205635300238468062505EB4202A352FC
:10A5000030BCC9B207F026BE30B401EBC10284688A
:10A5100004254FF0FF3305EB420563538368C9B24E
:10A5200013F8124024F0010403F8124030BC07F085
:10A5300011BE00002DE9FC41064640694FF4C055AC
:10A540000489B0690789C4B1DFF83C80BC4214D8E3
:10A5500001AB6A462946304607F0F0FD009838B94D
:10A56000019828B1C0F80880C0F80C80C0F81480A9
:10A570006D1C641CADB2A4B2E8E73046BDE8FC41F6
:10A58000002101F09ABC000025AD00082DE9F0473C
:10A590000446406900260589A069B0F8088035BBEB
:10A5A000BDE8F087A16806EBC607022000EB47096B
:10A5B00031F90900FEF7F6FEA26822F80900A16849
:10A5C000042000EB470931F90900FEF7EBFEA26811
:10A5D000761CF6B222F80900A1680020062201F8D4
:10A5E0001700A16802EB47026D1C8852ADB24545C9
:10A5F000D8D9D5E73EB50446D0F8A4000088A8B164
:10A6000020686946007800F5E060ADF800000120A0
:10A610008DF8030000208DF8020094F878008DF882
:10A620000400D4F8E00103F039FB3EBD34F9A80F73
:10A63000FEF7B8FE20803EBD044A0029516901D0D2
:10A64000014300E081435161704700000010024067
:10A65000044A0029916A01D0014300E081439162DC
:10A660007047000000100240044A0029D16901D05F
:10A67000014300E08143D1617047000000100240B7
:10A68000044A0029916901D0014300E081439161AE
:10A6900070470000001002400248416A41F080719A
:10A6A0004162704700100240F0B52C4A51682C4BB3
:10A6B00011F00C014FF00F0504D02A4C042903D0EF
:10A6C000082903D0036028E0046026E0516853683D
:10A6D00005EA914103F480330D2901D0891C00E083
:10A6E0000621BBB1D36A13F4803FD36A03F00F0392
:10A6F00003F101030AD0D66AD76AC6F30316761CA3
:10A70000B4FBF6F4C7F30327BF1C7C43B4FBF3F39D
:10A710004B43D7E7144B594301605168134C05EA8A
:10A720001111635C0168D94041605368072505EA4F
:10A730001323E35C21FA03F38360536805EAD32310
:10A74000E35CD940C1605268032303EA9232231FBD
:10A750009A5CB1FBF2F10161F0BD00000010024013
:10A7600000127A0040787D0100093D00C80C0020ED
:10A770000246002053090949012B0BD0022B0BD0B4
:10A78000D1F8241002F01F02012393400B4200D0A5
:10A79000012070470968F5E7096AF3E700100240F5
:10A7A0000149C87170470000001002400149086764
:10A7B0007047000000004242034AD16A21F4704110
:10A7C0000143D16270470000001002407CB51D4675
:10A7D000144601AB6A4607F0B1FC009931B9019902
:10A7E00021B10079A04201D941F8245000987CBDE4
:10A7F0002DE9FC41054640690F464088002831D0CC
:10A8000007EB870105EB0114A96994F82820498812
:10A810001044884226D86968134E51F83000C06A47
:10A8200090F800804FF0FF30A4F87200852084F883
:10A830002A0094F83200CDE90006238E94F82910FE
:10A84000284607F05DFDE662626F2AB14146284660
:10A850009047E06AB04205D1F9B22846BDE8FC4114
:10A8600007F053BCBDE8FC81000004051FB501EBF7
:10A87000810100EB01114A6B0AB98A6B4A630392AA
:10A88000012203ABCDE90032029201F13C0391F8C1
:10A890003220098E01F0A0FB04B010BD70B501EBB1
:10A8A000810100EB01118C6BA018202801D9FF2039
:10A8B00070BD002006E026181D5C0E44401C86F882
:10A8C0003C50C0B29042F6D3886B1044886300209D
:10A8D00070BD00002DE9F05F8B46214982460026BD
:10A8E000B1F900001C4691461C4D401C08E000BF19
:10A8F000B9F1000F01D02A7852B1761C36B2183562
:10A90000864201DC082EF3DB4FF0FF30BDE8F09FFC
:10A910008846864201D1A8F8000004F089FC074669
:10A920004FF6FF7120468C4200D30846D8F8042029
:10A93000BA4207D9D21B824204D93A18C8F8042077
:10A9400007F00EFEE019C5E903B0C5E901A90A98B0
:10A950006861012028703046D8E7000048C4002014
:10A96000E40D00200CB500212E48019100910268F1
:10A9700042F4803202604FF4A063026802F40032B5
:10A980000092019A521C0192009A12B9019A9A42BD
:10A99000F3D10268920342D50121009122490A684D
:10A9A00042F010020A600A6822F003020A600A6894
:10A9B00042F002020A6041684160416841604168BA
:10A9C00041F480614160C16A184A1140C162C16AA4
:10A9D000174A1143C162016841F08061016001685A
:10A9E0000901FCD5416821F47C114160416841F4C2
:10A9F000E8114160016841F08071016001688901DE
:10AA0000FCD5416821F003014160416841F0020139
:10AA100041604168C1F381010229FAD10CBD009166
:10AA20000CBD0000001002400020024000F0FEFFBC
:10AA300044060100084902780A7042784A70827818
:10AA40008A70C278CA7002790A7142794A710146E5
:10AA50000020FEF707BF00003C0D002007F06CBC93
:10AA6000124810B5016841F0010101604168104AC7
:10AA70001140416001680F4A11400160016821F4F2
:10AA800080210160416821F4FE014160016821F0EC
:10AA9000A05101604FF47F0181600021C162FFF786
:10AAA00061FF06490448086010BD00000010024024
:10AAB0000000FFF0FFFFF6FE0080000808ED00E058
:10AAC000F8B50D460646DDE90601090641EA0040F3
:10AAD00040EA03201043009008F0C6FB04000FD0AA
:10AAE0003246084907F06AFF002809D1064B2A467A
:10AAF0006946204608F042F80449204609F0C9F9A1
:10AB0000F8BD0000D459010899AB000811AB00084A
:10AB10002DE9F0430027ADF5017D91460D463E46F7
:10AB20000AF0EAF94FF400716846FDF7C9FB5FEAE5
:10AB3000090423D02189284609F0BFF9E846628933
:10AB400008EB06006168FDF7A2FB608924680644F3
:10AB5000002CF4D19DF8000060F3070738090228A3
:10AB600007D003280DD16A8B2946684601F030FED4
:10AB700007E0698B684601F003FE02E0284607F013
:10AB80005FFF484605F0D6FC00240AF097FD0DF55E
:10AB9000017D2046BDE8F08310B5488B0C46A0F53A
:10ABA000434150390BD10023104A1149204605F08A
:10ABB000C9F9204602F022F9204602F04BFA608BD8
:10ABC000A0F56A4160390FD10A4A0023A2F11401AD
:10ABD000204605F0B7F9204602F012FA00231A4683
:10ABE00005A1204605F034FA002010BD52000020D7
:10ABF00048000020A00E002074657374000000005F
:10AC000010B501218C07204600F01DF8002807D060
:10AC10000121204600F008F8BDE8104000F07AB8A5
:10AC200010BDC94301827047C943018270470029A2
:10AC3000018802D041F0010101E021F00101018011
:10AC40007047808C704702460020138A92890B421D
:10AC500002EA010202D0002A00D001207047002A37
:10AC6000828901D00A4300E08A4382817047FDF760
:10AC700031BF81847047000030B502881B4B1C4CEB
:10AC800098420DD0A0420BD0B0F1804F08D0194DA2
:10AC9000A84205D0184DA84202D0184DA84203D1B1
:10ACA00022F070054A882A43154DA84206D0154D5A
:10ACB000A84203D022F44075CA882A4302808A88B9
:10ACC00082850A88028598420AD0A04208D00E4A9E
:10ACD000904205D00D4A904202D00D4A904201D1D7
:10ACE000097A01860121818230BD0000002C0140DB
:10ACF000003401400004004000080040000C004007
:10AD00000010004000140040004001400044014099
:10AD10000048014002480021C160016100F044BACE
:10AD2000140000202DE9F041044690F87E0048B35D
:10AD3000022A03D0032A01D0052A23D16269A08800
:10AD4000127A00EBC200081AC0F3C705A16805EB30
:10AD5000C506022000EB4607C85FFEF723FBA1688B
:10AD6000C853A168042000EB4607C85FFEF71AFB32
:10AD7000A168C853A168002001F8160029462046A2
:10AD8000FFF7AEFB0020BDE8F0810000514C86B01B
:10AD900094F85900012828D04FA0FDF715FEFEF7C2
:10ADA00069FA53484068C4F84D0009F03BFD009033
:10ADB00002F024FADFF83CA1DFF83CB14F4D4CF231
:10ADC00050384FF000094EF6602600BFFEF76CF9D0
:10ADD0000746B4F8C000B04202D1FEF739F904903A
:10ADE000404602F0F1F910B36EE094F84D0054F8CB
:10ADF0004E1F03AB40EA01200190E078616802AA8F
:10AE000040EA01200290E079A16840EA0120039025
:10AE100001A9374805F088F9A0780090637814F804
:10AE2000012937A014F84D19FDF7CEFDB9E7A88820
:10AE3000401C80B2A880B4F8C020424502D0698886
:10AE4000491C6980962802D86888962809D9042068
:10AE500002F06CFA022002F055FA032002F052FAD6
:10AE600004E001F095FF009809F06AFE9AF80010DE
:10AE7000012903D18AF80090A5F804909BF80010EE
:10AE8000012903D18BF80090A5F80290A888C82862
:10AE90000BD923A000F0F6FAA5F804900121404652
:10AEA00002F06AF9384607F0CBFD6888C8280BD94C
:10AEB00022A000F0E7FAA5F802900121304602F046
:10AEC0005BF9049807F0BCFD4FF47A7009F056FF67
:10AED0007CE70000880E0020526561647920746F61
:10AEE0002072756E20444843502E2E2E0D0A00000D
:10AEF0003C0E00209C0000209D0000203E00002011
:10AF0000537461746963204950206164647265738D
:10AF1000733A25642E25642E25642E2564720A005A
:10AF200070696E67206D61696E20736F636B657405
:10AF3000206F757474696D650D0A000070696E6725
:10AF40002062757320736F636B6574206F75747402
:10AF5000696D650D0A00000030B5002441F204451A
:10AF6000431B1460A8427BD042DC41F28125A0EB58
:10AF70000503A84275D026DC41F21105A0EB0503BC
:10AF8000A8426FD014DC41F20505A0EB0503A842EE
:10AF90007BD008DCB0F5805F75D06FF48052D04272
:10AFA0006AD10120C6E0012B72D00B2B64D177E06F
:10AFB000032B79D0052B79D0072B79D0A3F500731B
:10AFC0006F3B59D176E0062B69D006DC062B53D2B5
:10AFD000DFE803F05274767B7D7FA3F580737F3BBF
:10AFE0007FD0012B7FD0022B7FD0032B44D17EE07A
:10AFF00040F20325A3F20320AB426ED01EDCB3F572
:10B00000FF7F6BD00FDC032B7AD004DC012B72D0D6
:10B01000022B31D172E0B3F5FE7F73D0A3F58073BC
:10B02000FD3B29D170E0A3F58073FF3B73D0012B6A
:10B0300073D0022B73D0032B1ED172E040F6FC15A7
:10B04000A0F6FC13A8426ED00EDCA0F510601B38F1
:10B050006FD0DE2873D0DF2875D0E0280CD17AE0DD
:10B0600047E029E01EE010E0012B7CD0022B7ED0CF
:10B07000032B6ED0042B6DD043480860002030BDF8
:10B0800001E005E010E0002054E002203F4B02E028
:10B090003E4B03201B1D13604CE007E008E01AE064
:10B0A000042047E0052045E0062043E0072041E07A
:10B0B00008203FE009203DE00A203BE00B2039E07A
:10B0C0000C2037E00DE00EE00FE00D2032E00E2006
:10B0D00030E00F202EE010202CE028E016E00FE0FA
:10B0E00009E0112026E0122024E0132022E01420A1
:10B0F00020E015201EE016201CE003E0172019E0D8
:10B10000182017E0192015E01A2013E01B2011E089
:10B1100001E002E003E01C200CE01D200AE01E20FC
:10B1200008E01F2006E01AE003E008E00BE0202022
:10B1300000E021200C60164901EBC0009FE7134B93
:10B1400022200833A7E7114B23200C33A3E70AE0A2
:10B150000DE010E013E00D4B242010339BE70B4B68
:10B160002520143397E7094B2620183393E7074B24
:10B1700027201C338FE7054B282020338BE7034B18
:10B180002920243387E7000000000206C8010020C0
:10B19000E45701089F2803D1087808B10148704797
:10B1A00000207047300009062DE9F0414FF6FF748A
:10B1B00004F03EF8204D02466868831800211F48BD
:10B1C00015E00678F6070FD006699E421DD846693D
:10B1D000C6B1B2FBF6F706FB1727F61B032706617D
:10B1E0000770A64200D23446491C09B21830B5F99E
:10B1F0000060B142E5DD20466C6007F0B1F9002641
:10B200000E4C13E002260670EEE7F61A0661E8E738
:10B210002078810707D520F002002070A26812B1C3
:10B22000E16860689047761C36B21834B5F90000C2
:10B230008642EDDDBDE8F081E40D002048C4002029
:10B2400010B586B001210420FFF71AFA0121880306
:10B25000FFF716FA4FF40070ADF8100003208DF8D8
:10B2600012001820214C8DF8130004A92046FEF787
:10B2700037FD2015ADF8100004208DF8130004A947
:10B280002046FEF72DFD25208DF814000A208DF8AC
:10B29000150000248DF8164001208DF8170005A830
:10B2A000FFF7B6F84FF4E130ADF804400090ADF888
:10B2B0000640ADF80840ADF80C400C200C4CADF841
:10B2C0000A006946204600F07BF86021204600F025
:10B2D0002BF8012240F22551204600F058F80121B8
:10B2E000204600F024F806B010BD00000008014020
:10B2F0000038014010B50A4C40F22551204600F0BC
:10B3000027F800280AD0204600F0B2F8C1B205485C
:10B3100001702046BDE8104000F0AEB810BD00003E
:10B32000003801403C000020C943018070470029DB
:10B33000818902D041F4005101E021F40051818162
:10B3400070470246002012880A4200D00120704750
:10B3500030B501F01F0201240025C1F3421304FAA5
:10B3600002F2012B0FD0022B0FD0838A4FEA11215A
:10B370000088134204FA01F400EA040001D000B18D
:10B380000125284630BD8389F0E7038AEEE710B532
:10B39000C1F3421301F01F040121A140012B07D08A
:10B3A000022B07D01430002A026805D00A4304E0BB
:10B3B0000C30F8E71030F6E78A43026010BD000059
:10B3C00030B50446008A85B00D464CF6FF71084042
:10B3D000E98801432182A1894EF6F3100140A88833
:10B3E0002A8910436A890A431043A081A08A4FF634
:10B3F000FF410840A9890143A1826846FFF754F93B
:10B400001948844201D1039800E00298A1890904F7
:10B4100000EBC00101EB0010296801D5490000E0F4
:10B420008900B0FBF1F06422B0FBF2F109010B09D5
:10B430006FF018056B4300EB8300A3891D044FF0E8
:10B44000320306D503EBC000B0FBF2F000F00700BA
:10B4500005E003EB0010B0FBF2F000F00F00084332
:10B46000208105B030BD000000380140FFF7E8BE84
:10B470008088C0F308007047C1F3080181807047DD
:10B48000FEE770470FB4054B10B503A9044A0298B4
:10B4900000F07CF910BC5DF814FB000021F20008FC
:10B4A000F00D00200FB4084B10B504A902AA0398B0
:10B4B00000F06CF9044602A9002000F010FE2046BE
:10B4C00010BC5DF814FB0000DFC000087CB504462A
:10B4D00000201D46164600290BD0491ECDE900412B
:10B4E000044B6A462946304600F050F9009A002184
:10B4F00011707CBDC9C0000802E008C8121F08C155
:10B50000002AFAD170477047002001E001C1121FE4
:10B51000002AFBD1704700002DE9FF5F82B00021B7
:10B52000DDE90430020DDDF840B0034318D044F6E5
:10B530001050A2F2FF3242431514119801281FD077
:10B54000A5EB0B00401C5FEA000A4FF000064E4FCF
:10B55000DFF83891B046504615D5CAF1000413E023
:10B56000119801244AA3012801D16FEA0B01029826
:10B57000119AC0E90031C0E9024206B0BDE8F09F6F
:10B58000CBF10000DFE704460021404A491842EBB6
:10B590000450CDE9001012E0E00707D032463B46E8
:10B5A00040464946FCF7A8FF8046894632463B465E
:10B5B00010461946FCF7A0FF06460F466410002C03
:10B5C000EAD1DDE90401DDE90023BAF1000F06DA72
:10B5D000FCF792FF42464B46FCF78EFF05E0FCF776
:10B5E000FDFF42464B46FCF7F9FF04460E4600229B
:10B5F000284BFDF77BF803D84FF0FF30014607E0FA
:10B600000022254B20463146FCF7CFFEFDF755F8CA
:10B61000102409E0002C0ADB0A220023FCF706FEB6
:10B62000039B30321A55641E50EA0102F2D1641CA9
:10B63000039AC4F111031444119A012A03D0012280
:10B6400008430DD10AE0084304D000204FF0110B4D
:10B65000119072E7A3EB0B056D1E0DE05B4504DD59
:10B660004FF0000205F1010504E003DA4FF000029B
:10B67000A5F10105002AECD002981199C0E9023128
:10B68000C0E9004579E70000000014400000F03FE9
:10B69000300000000000F0430000E03F2DE9FC41D5
:10B6A0001C468C46DDE908581746D0F8E4310A9E5E
:10B6B00001AA694660469847009911B10846BDE85D
:10B6C000FC810179B94201D82448F8E707EB47012A
:10B6D00036B1026812F82120D20701D02048EEE7E7
:10B6E0005CB10422066802EB8102D5F800C0B358B1
:10B6F000634505D91B482B60E1E74FF00060DEE7AA
:10B70000012303EB8101735C88F800300068082195
:10B71000092B865807EB470201EB820106D04158FE
:10B7200032462046FCF7B3FD2E6014E040582A68EC
:10B73000014602B93246024403E000BF04F8013B6F
:10B74000401C03780BB19042F8D3411A2960B142F2
:10B7500001D2002101700020B1E7000011000906AC
:10B7600001000106050004057047704770477047E7
:10B77000FDF7C6BC7047704770477047016A09788B
:10B78000002902D1812204F068BA70472DE9FF4FE9
:10B7900095B09B468946064600250FE2252877D1BD
:10B7A00000242746F84A0121059400E0044316F8D6
:10B7B000013F203B01FA03F01042F7D130782A28EC
:10B7C00011D06FF02F033078A0F13002092A16D87B
:10B7D000059A44F0020402EB820203EB4202104499
:10B7E000761C0590EFE759F8042B0592002A03DA3E
:10B7F000504244F40054059044F00204761C307822
:10B800002E2816D116F8010F44F004042A280DD072
:10B810006FF02F023078A0F13003092B09D807EB25
:10B82000870302EB4303C718761CF3E759F8047B40
:10B83000761C30786C280FD006DC4C2817D068288E
:10B840000DD06A2814D104E0742810D07A280FD1C2
:10B850000DE044F400140AE044F4801401E044F4E0
:10B8600040147278824202D104F58014761C761C52
:10B87000307866280BD013DC582877D009DC0028F4
:10B8800075D04528F6D04628F4D047281AD19DE136
:10B8900018E0632835D0642879D0652812D195E165
:10B8A000702873D008DC6728F1D069286FD06E2823
:10B8B0000DD06F2806D1B5E073282CD0752875D02F
:10B8C000782874D05A46179990476D1C75E1C4F3D7
:10B8D0000250022809D003280DD0D9F800100428FE
:10B8E0000DD00D6009F1040967E1D9F80010EA17DD
:10B8F000C1E90052F6E7D9F800100D80F2E70D70AB
:10B90000F0E719F8041B8DF8001000208DF80100F5
:10B91000EA46012003E059F804AB4FF0FF3061071D
:10B920004FF0000102D40DE008F101018846B94250
:10B930000FDA8045F8DB1AF808100029F4D108E086
:10B9400008F1010188468142FADB1AF80810002943
:10B95000F6D105985B46A0EB080721463846179AB2
:10B9600000F094FA284400EB080507E04DE029E1D7
:10B970000DE01AF8010B5A4617999047B8F10108E3
:10B98000F7D25B4621463846179A13E142E00A2275
:10B990000092C4F302524FF0000A022A08D059F86C
:10B9A00004CB032A4FEAEC710AD00DE029E02AE02B
:10B9B00009F1070121F00702F2E802C1914609E00E
:10B9C0000FFA8CFC4FEAEC71042A03D14FFA8CFC7D
:10B9D0004FEAEC71002907DA0A460021DCF1000C7D
:10B9E00061EB02012D2202E0220504D52B228DF805
:10B9F0000420012203E0E20701D02022F7E790466D
:10BA000059E00A2102E010220DE010214FF0000A57
:10BA100000910BE010224FF0000A44F004040827C4
:10BA2000009203E008224FF0000A0092C4F3025291
:10BA3000022A05D059F804CB0021032A08D009E0D6
:10BA400009F1070121F00702F2E802C1914605E081
:10BA50001FFA8CFC042A01D10CF0FF0C4FF00008F7
:10BA6000220728D5702806D0009B83F0100353EAE4
:10BA70000A0305D00EE040228DF80420012208E0E0
:10BA80005CEA010206D030228DF804208DF8050012
:10BA900002229046009B83F0080353EA0A030AD16E
:10BAA0005CEA010201D1620705D530228DF804203D
:10BAB0004FF001087F1E582804D034A003900EA830
:10BAC00002900DE036A0F9E753466046009AFCF775
:10BAD000ADFB84460398825C0298401E029002707F
:10BAE0005CEA0100F0D1029806A9081A00F1200AC8
:10BAF000600702D524F4803400E00127574502DDB9
:10BB0000A7EB0A0000E0002000EB0A010090059876
:10BB10004144401A0590E00306D45B462146179A3B
:10BB2000059800F0B3F90544002706E001A85A463D
:10BB3000C05D179990476D1C7F1C4745F6DBE003FD
:10BB40000CD55B462146179A059800F09FF90544ED
:10BB500004E030205A46179990476D1C0099481E02
:10BB600000900029F5DC08E0029802995A46007816
:10BB7000491C0291179990476D1CBAF10001AAF176
:10BB8000010AF1DC65E1000009280100303132339F
:10BB90003435363738396162636465660000000009
:10BBA00030313233343536373839414243444546F3
:10BBB0000000000000F058F90544761C3078002899
:10BBC0007FF4ECAD19B02846BDE8F08F620700D4D1
:10BBD000062709F1070222F0070CFCE80223E146E0
:10BBE00003F000485FEA080C02D00FF2702C0DE061
:10BBF0005FEA045C02D50FF2682C07E05FEAC47CC0
:10BC000002D00FF2602C01E0AFF2700C4FF0FF3861
:10BC100023F00043CDF850C065280CD006DC452841
:10BC200009D046281DD047283DD13DE0662818D0D0
:10BC300067287ED138E00021112F01DB112000E0C0
:10BC4000781CCDE9000106A90EA8FFF765FCDDE927
:10BC50000F010E9A03910021009207F1010A04914D
:10BC60004DE04FF000400097CDE9011006A90EA865
:10BC7000FFF752FCDDE90F0203920E9B119900229F
:10BC8000DDF80CA00093049211B9791C00EB010AB5
:10BC9000B7EB0A0004D4C0F1FF3007F1010A0490A9
:10BCA000AAEB0700019044E0012F00DA01270021F0
:10BCB000112F01DD112000E03846CDE9000106A971
:10BCC0000EA8FFF729FCDDE90F010E9A0391002170
:10BCD00004910092BA4621070CD40399514500DA29
:10BCE0008A46BAF1010F05DD009AAAF10101515C03
:10BCF000302908D0B84202DA10F1040F06DA012127
:10BD0000CDE9011015E0AAF10101E9E7002805DC01
:10BD1000049901440491AAEB000102E0411C514541
:10BD200000DD8A460499401A401C01904FF0004003
:10BD30000290200704D40198504501DBCDF804801F
:10BD400000208DF84F0002980DF14F07B0F1004F21
:10BD500025D02B200E9002984FF0020800280CDA14
:10BD6000404202902D200E9007E00A210298FCF735
:10BD7000E7FA3031029007F8011DB8F10001A8F18F
:10BD80000108F2DC02980028EFD1791E0E980870A5
:10BD9000307800F0200040F0450007F8020D12A8AE
:10BDA000C01B00F107081498007800B1012000EBD7
:10BDB0000A01019801EBE07105984144401A401EC8
:10BDC0000590E00306D45B462146179A059800F0DB
:10BDD0005DF805441498007818B15A4617999047B1
:10BDE0006D1CE00324D55B462146179A059800F0A8
:10BDF0004DF805441CE00498002807DBDDE9030149
:10BE0000884203DD0098405C179901E017993020C3
:10BE10005A469047049805F10105401C049001988A
:10BE2000401E019004D12E205A46179990476D1C50
:10BE3000BAF10001AAF1010ADDDC05E017F8010BF7
:10BE40005A46179990476D1CB8F10001A8F10108F6
:10BE5000F4DC5B462146179A0598ABE62D000000FE
:10BE60002B000000200000002DE9F04104460025D1
:10BE70001E461746880404D405E039462020B04702
:10BE80006D1C641EF9D52846BDE8F0812DE9F0410E
:10BE9000044600251E469046C80301D5302700E021
:10BEA0002027880404D505E041463846B0476D1C7C
:10BEB000641EF9D52846BDE8F0812DE9FE4F044601
:10BEC0004069002589460689A069078994F87E00A3
:10BED00000280ED0002E6AD0A846CDF80080CDF8FC
:10BEE0000480CDF8088060E005286ED00B2858D07B
:10BEF000FF20BDE8FE8F606850F836004169096890
:10BF0000002901DA0B2024E0006AB9F1000F23D0E8
:10BF10000178E9B3F02925D8A26805EBC50112F82C
:10BF200011305B1CDBB202F811300278934219D158
:10BF3000A268204602F81180CDF80080CDF8048078
:10BF40006A462946CDF8088001F022FD0028D9D1A3
:10BF50000520BE42C8D92AE00078FF2829D0FE2853
:10BF600027D01CE00078FC2818D105EBC50A062272
:10BF7000A16802EB4A000A182946204601F008FD94
:10BF80000028A06810F81A1003D021F0010202E086
:10BF900016E041F0010200F81A20B3E780B1BE427A
:10BFA00005D86D1C761CEDB2B6B2BE42A3D90020F6
:10BFB0009FE7A06805EBC50110F81100C007EDE789
:10BFC0002946204606F0C6F89CE76A4629462046E0
:10BFD00006F046F996E700002DE9FF4F83B0914641
:10BFE000DDE910758246D0F8E43101AA694604986B
:10BFF000984704460098002803D12179494503D881
:10C000002E4807B0BDE8F08F09EB490625B120683E
:10C0100010F82600022811D00121206801EB8601CA
:10C0200010F80180042101EB86014558386848B1B9
:10C03000A84207D0B8F1090F02D03BE02048E0E762
:10C04000A84237D2DAF8242040460699904700905B
:10C050000028D6D10820216800EB860B3A6851F8F9
:10C060000B000699FCF713F9B8F1090F07D13868EE
:10C07000A84204D22368002253F80B100A543D60F2
:10C08000019850B150F82930494633B10A4621464B
:10C090005046984700900028B3D1206810F8260039
:10C0A000400705D5DAF8E83150464A4604999847E2
:10C0B0000020A6E703483D60A3E700001100090641
:10C0C00002000106100007064A68002A06D00A6826
:10C0D000531C0B6010704868401E486070470A6827
:10C0E000531C0B6010707047704770472DE9F04F7C
:10C0F00085B090460EAA1F4692E8100C0546DDF862
:10C100004C90FDF76FFE0646FE280DD2014602ABAD
:10C110000222284603F0B9F828B102AA02212846D3
:10C1200003F09BF818B1FF2005B0BDE8F08FB9F11E
:10C13000000F11D00420CDE90070434632469DF82F
:10C140000810284603F00AFB9DF8080000EB800069
:10C1500005EB0010046609E00220CDE900704346BB
:10C1600032469DF80810284603F0F8FA9DF80800BA
:10C1700000EB800005EB001044639DF808100020E0
:10C1800001EB810105EB011181F870A00CE000BF0B
:10C190009DF808201BF8001002EB820205EB02124A
:10C1A0000244401C82F83C10A042F1D303A9B9F12B
:10C1B000000F0DD0C2208DF80C000020C30024FA1F
:10C1C00003F20B18401CC0B21A710428F6D326E003
:10C1D000042C17D8C4F10400232242EA80009DF801
:10C1E00008208DF80C0002EB8202042005EB0212FD
:10C1F000131893F838300B54401CC0B20828F7D3FA
:10C2000094630CE021208DF80C000020C30024FA78
:10C2100003F20B18401CC0B21A710428F6D39DF823
:10C2200008108DF80D804FEA18208DF80E0001EBF4
:10C23000810105EB01118DF80F701198486703AB70
:10C2400032460221284606F01FF800283FF46CAF62
:10C250009DF80810284605F058FF64E7F0B58BB04C
:10C260000025039504950195029506950795089577
:10C270005A21A2A00995FFF705F95A22A649A74815
:10C2800001F084F801284AD0A54802ABA24C4068CE
:10C2900007C883E80700BDF81000ADF804009DF85A
:10C2A00012008DF806009DF80D008DF807009DF82E
:10C2B00008000422000100F0F0019DF80A0000F0DF
:10C2C0000F008DF80A0008438DF808009DF80E0055
:10C2D000000100F0F0019DF80F0000F00F008DF854
:10C2E0000F0008438DF809009DF8040000F0FE00DF
:10C2F0008DF8040088480199803040F85A1FBDF835
:10C30000081081808649A4F8E25084F8BF50303983
:10C310002046FBF7F9FF04F1180630B12FE081A0A9
:10C32000FFF7B0F800200BB0F0BD7D482C38FBF7CC
:10C33000E4FF7B4902462C39201DFBF7F2FFF0B9E0
:10C34000201DFBF7DAFF764902462C39201DFBF74A
:10C35000E8FFA0B972482238FBF7CFFF70490246C8
:10C3600022393046FBF7DDFF48B93046FBF7C5FF01
:10C370006B49024622393046FBF7D3FF98B394F855
:10C380004C00CF2834D0664830380068206040F236
:10C390005B70A4F84A0062482C38FBF7AEFF604996
:10C3A00002462C39201DFBF772FF5D482238FBF74F
:10C3B000A4FF5B49024622393046FBF768FF584824
:10C3C0002C38FBF79AFF2044057155482238FBF7BB
:10C3D00094FF204405764CF25030A4F8C00059A0D8
:10C3E000FFF750F80BE0FFE7FF2084F84C00CAE7A6
:10C3F0005AA0FFF747F84EF66020A4F8C00094F862
:10C40000DC0002AF94F8DF3094F8DE2094F8DD1001
:10C4100087E80F0094F8DB1094F8DA00CDE900010A
:10C4200000231A4652A106A8D834FFF73BF83A4831
:10C430001022C83006A90746FBF729FF04F8D8598F
:10C44000102206A95348FBF722FF102206A95248E2
:10C45000FBF71DFF102206A95048FBF718FF10221A
:10C4600006A94F48FBF713FF102206A94D48FBF71A
:10C470000EFF4DA0FFF706F800254EA0615DFFF707
:10C4800001F84DA0FEF7FEFF6D1CEDB2032DF4D3B5
:10C49000E17848A0FEF7F6FFB4F84A1047A0FEF78F
:10C4A000F1FF4AA0FEF7EEFF211D49A0FEF7EAFFCB
:10C4B00031464DA0FEF7E6FF51A0FEF7E3FF002551
:10C4C000601990F8DA1052A0FEF7DCFF6D1CEDB297
:10C4D000062DF5D33DA0FEF7D5FF39464EA0FEF759
:10C4E000D1FF51A153A0FEF7CDFF58A15DA0FEF7EB
:10C4F000C9FF62A0FEF7C6FF012014E74C6F61641C
:10C500002073797374656D20636F6E6669672E2E74
:10C510002E25640D0A000000880E002000FE03088E
:10C520007400002052656164537973436F6E6669CD
:10C53000673A52656164206C697374206661696C46
:10C540002E0D0A005573652064656661756C742054
:10C55000636F6E6669672E0D0A00000055736520D3
:10C56000666C61736820636F6E6669672E0D0A00E2
:10C5700025303278253032782530327825303278BF
:10C5800025303278253032782530327825303278AF
:10C5900000000000A500002021010020480100202B
:10C5A000CA000020F300002073657276657220498E
:10C5B000503A0000256400002E00000020202020BA
:10C5C0002020504F52543A25640000000D0A00000C
:10C5D00073657276657220757365726E616D653A0A
:10C5E00025730D0A00000000736572766572207075
:10C5F000617373776F72643A25730D0A000000004F
:10C60000436C69656E7420094D41433A0000000097
:10C610002530327820000000436C69656E74206913
:10C62000643A25730D0A00004D43425230325F5682
:10C63000312E3700486172647761726520766572C9
:10C6400073696F6E3A25730D0A00000042535F56FE
:10C6500031303052303130433031423136375F3053
:10C6600037303900536F6674776172652076657272
:10C6700073696F6E3A25730D0A000000526561649C
:10C680007920746F20696E6974206E65742E2E2E69
:10C690000D0A000081070CD16421B0FBF1F201FB0F
:10C6A000120141B94FF4C871B0FBF1F201FB120065
:10C6B00008B1002070470120704700002DE9FE4FAF
:10C6C000924629A28946064607CA8DE8070000243B
:10C6D000A6F2B2709B46822802D30120BDE8FE8FED
:10C6E00040F2B275234FDFF8908007E02846FFF74D
:10C6F000D1FF01280CD044446D1CADB2B542F5D336
:10C70000A9F10100C7B20025E846DFF8709011E0FA
:10C710003C44F1E718F8050040F2A321484304EB3C
:10C72000C0143046FFF7B6FF10B1012D00D14C44C4
:10C730006D1CADB2BD42EDD340F2A3210AFB01F066
:10C740000E4904EBC01049420844CBEB4B12C2EB3C
:10C750000B2100EB01100C99C1EB011100EB8100E2
:10C760000D990844BAE700001F1C1F1E1F1E1F1F43
:10C770001E1F1E1F0085E2018033E1018051010070
:10C780003EB50C46C9B2024600914FF4007301A9B0
:10C7900002A8FDF7B5FB01280BD19DF80400002885
:10C7A00007D1214603A0FEF76DFE0021204600F0D0
:10C7B000E3FC3EBD506F7274202564204D515454EB
:10C7C00020636F6E6E656374204F4B0D0A0000008E
:10C7D000F0B599B015460C4603AED2B24FF40071D5
:10C7E00086E8070010A9009107AB06A8CDE9010370
:10C7F00013AB17AA14A916A8FDF7B3FB14980128C8
:10C800000BD1BDF84C201E2108A8FDF730FDC2B2A7
:10C81000002308A9204607F0F9FF3C48FBF76DFD0F
:10C8200002463A491298FBF77CFD38485030FBF736
:10C8300064FD3649024650311298FBF772FDA0B9EB
:10C84000608B324F0126BF1EA0F54341503903D102
:10C850002FA0FCF7B9F83E70618BA1F56A406038F3
:10C8600003D132A0FCF7B0F87E70069801784278C8
:10C8700001EB02220799521A121D0DD032A0FCF7CB
:10C88000A3F80698079A0178407801EB002132A0BE
:10C89000FCF79AF83BA011E0891E89B200F0D6F9A6
:10C8A000DDE90631194411F8012CB2EB102F04D147
:10C8B00011F8021CC0B2814204D033A0FCF784F806
:10C8C00019B0F0BD15AA1846129900F07BF900289E
:10C8D000F6D09DF8540004280AD007280FD0082865
:10C8E000EED00928ECD12946204600F0C5F9E7E74B
:10C8F0000798069A81B2204600F0A6FDE0E7079867
:10C9000081B2069800F046F8DAE700009E000020A9
:10C910005265636569766520534F434B5F4D4149CE
:10C920004E2048656172740D0A000000526563650F
:10C9300069766520534F434B5F42555320486561EC
:10C9400072740D0A00000000546F706963206C65FA
:10C950006E206572726F7200546F706963496E6603
:10C960006F5B305D2B546F706963496E666F5B312E
:10C970005D2A3235363D25642C6C656E3D25640D8F
:10C980000A0000000D0A0000435243206572726FD6
:10C99000720D0A002DE9F0410546407A142804D8AA
:10C9A00005F10A07C05D322804D9BDE8F04155A061
:10C9B000FCF70AB85B4CD5F8030039462060B5F89F
:10C9C0000700A4F84A006A7A201DFBF760FC687A29
:10C9D00005F10B010144C25D04F118000646FBF7A6
:10C9E00056FC6A7A211D00205054697A0422C95DE0
:10C9F00088554D492046FBF787FC20BB4B48FBF789
:10CA00007CFC02464949201DFBF78BFCD8B9201D50
:10CA1000FBF773FC02464549201DFBF782FC90B9E9
:10CA20004348FBF76AFC024641493046FBF779FC74
:10CA300048B93046FBF761FC02463D493046FBF7FA
:10CA400070FC002849D0CF2084F84C0039A0FBF7B7
:10CA5000BBFF00253BA0615DFBF7B6FF3AA0FBF7EB
:10CA6000B3FF6D1CEDB2032DF4D32746E17835A05A
:10CA7000FBF7AAFFB7F84A1034A0FBF7A5FF37A0D1
:10CA8000FBF7A2FF391D36A0FBF79EFF31463AA007
:10CA9000FBF79AFFFDF700F93520FDF7A3F83C4DB1
:10CAA0002846FDF7A5F8042802D03AA0FBF78CFF32
:10CAB0005FF0000407EB440117F81400497840EADE
:10CAC00001212846FDF7CEF8042808D0FDF7C2F86A
:10CAD000BDE8F04134A0FEF7D5BCFF20B4E7641CEC
:10CAE000E4B2AD1C2D2CE5D34FF47A7008F046F972
:10CAF00032480168324A01F4E06111430160BFF33A
:10CB00004F8FFEE70D0A73657420706172616D6569
:10CB1000746572206F766572206C696D6974210D81
:10CB20000A000000880E0020440000204800002079
:10CB3000520000200D0A7365727665722049503AE2
:10CB400000000000256400002E00000020202020AE
:10CB50002020504F52543A25640000000D0A000076
:10CB600073657276657220757365726E616D653A74
:10CB700025730D0A000000007365727665722070DF
:10CB8000617373776F72643A25730D0A00000000B9
:10CB900000FE0308657261736520666C617368202E
:10CBA0006572726F720D0A00777269746520666C27
:10CBB000617368206572726F720D0A000CED00E0FF
:10CBC0000400FA0570B50D4614460FA12846FBF780
:10CBD00082FB08B1092014E010A12846FBF77BFB7B
:10CBE00008B104200DE011A12846FBF774FB08B141
:10CBF000072006E011A12846FBF76DFB002802D0B4
:10CC000008202070012070BD2F727270632F726532
:10CC100071756573742F7374617465002F7570641A
:10CC20006174652F67617465776179002F6465763B
:10CC3000636667706172612F736574002F7265732C
:10CC400065742F67617465776179000070B5094D6F
:10CC5000FF231A4605F5807606E000BF10F8014B69
:10CC600054402A5D5A40335D491E89B2F6D242EAE9
:10CC7000032070BDE859010870B5B4B00D460646F2
:10CC800014212CA8FBF71CFB34211FA8FBF718FB71
:10CC9000642104A8FBF714FB1DA802F05FFB9DF8BC
:10CCA0007A109DF87900CDE900019DF874009DF897
:10CCB00075109DF8783000EB012080B29DF8772048
:10CCC0009DF87610FFF7FAFC04461A4A1AA104A848
:10CCD000FEF7E8FB1B4850F8DA1F31918088ADF869
:10CCE000C8009DF8C6009DF8C9309DF8C8209DF881
:10CCF000C7108DE80F009DF8C5309DF8C42012A123
:10CD00002CA8FEF7CFFB23462CAA17A11FA8FEF7DD
:10CD1000C9FB29461AA0FBF757FE1FA8FBF7EDFA3F
:10CD20000346E8B200901FAA04A9304603F05CF95C
:10CD300034B070BDC50000202F6A736F6E25732F4D
:10CD400061636B00880E002030303030253032783F
:10CD500025303278253032782530327825303278D7
:10CD600025303278000000007B226964223A2225B7
:10CD700073222C2274696D65223A222564227D007B
:10CD800073656E642068656172742025640D0A0005
:10CD9000194910B5084691F8BF20B0F8E200012A01
:10CDA00003D0032A27D1D8B11DE0B1F8C0104CF24E
:10CDB0005032914200D018B191421CD140B10AE0EA
:10CDC000022000F09FFA032000F09CFA04200EE0FD
:10CDD000042000F097FA032000F094FA022006E005
:10CDE000042000F08FFA022000F08CFA0320BDE846
:10CDF000104000F0AFBA10BD880E00202DE9F14FB1
:10CE0000ADF5327D0026202199A8FBF759FA2021A3
:10CE1000A1A8FBF755FA20218BA8FBF751FA4FF494
:10CE2000FA710EA8FBF74CFA18224E4993A8FBF7AB
:10CE30002EFA4D48446A4B4914221831A9A8FBF731
:10CE400026FA00200DF5297151F8202000F101008B
:10CE5000224201D0C6B202E0C0B20528F4D393A8A2
:10CE600050F8261041A0FEF70DFBFDF715FC444FCE
:10CE7000394601F1E6003C68D7F84D5051F8DA2FF9
:10CE800004928988ADF814100168069180889DF895
:10CE90001530ADF81C00AF939DF814009DF81220DA
:10CEA0009DF81310B09003930092CDE901109DF806
:10CEB00011909DF810808B4692464B46424631A118
:10CEC00099A8FEF7EFFA9DF81A009DF81D309DF81D
:10CED0001C209DF81B108DE80F009DF819309DF85F
:10CEE000182028A1A1A8FEF7DDFAB7F84A20210EE4
:10CEF000C4F307408DE80700C4F30723E2B229A179
:10CF00008BA8FEF7CFFA93AB0AAC53F8263029A2D0
:10CF10002BA18BA884E80F00DDE9AF03CDE9083031
:10CF2000E9B20091C5F30743C5F30720CDE901033A
:10CF300003A82A0E80E8040FA1AB99AA26490EA8DF
:10CF4000FEF7B0FA0EA8FBF7D8F9034600200090D0
:10CF50000EAA22A1B29803F047F80DF5337DBDE883
:10CF6000F08F0000B4570108001002407374617222
:10CF7000747374617475733A25730D0A00000000B0
:10CF8000880E00203030303025303278253032782D
:10CF90002530327825303278253032782530327895
:10CFA0000000000025642E25642E25642E25643A99
:10CFB000256400004D43425230325F56312E370017
:10CFC00042535F563130305230313043303142318C
:10CFD00036375F3037303900805C01082F6A736F55
:10CFE0006E2F696F745F676174657761792F7665FD
:10CFF0007273696F6E2F7265706F7274000000003B
:10D0000010B5002304461A460B4903F021F818B95D
:10D0100009490AA0FEF736FA00231A460C492046B1
:10D0200003F016F8002805D1BDE81040084903A018
:10D03000FEF728BA10BD0000C500002073756273AA
:10D040006372696220746F7069633A25730D0A0018
:10D05000EE00002010B58EB00446202104A8FBF796
:10D060002FF92E4800231A4650F8DA1F0C918088B9
:10D07000ADF834002A49204602F0EAFF18B92849E1
:10D0800028A0FEF7FFF900231A462B49204602F09C
:10D09000DFFF18B9284923A0FEF7F4F900231A4648
:10D0A0002649204602F0D4FF18B924491DA0FEF7F6
:10D0B000E9F900231A462249204602F0C9FF18B9AF
:10D0C0001F4918A0FEF7DEF900231A461D49204625
:10D0D00002F0BEFF18B91B4912A0FEF7D3F99DF864
:10D0E00032009DF835309DF834209DF833108DE8DE
:10D0F0000F009DF831309DF8302013A104A8FEF7F1
:10D10000D1F904A8FBF7F9F803460020009004AA1F
:10D1100018A1204602F068FF0EB010BD880E002056
:10D120009E000020737562736372696220746F7071
:10D1300069633A25730D0A001A010020410100209D
:10D14000C5000020EE00002073797374656D2073B4
:10D15000746172743A303030302530327825303294
:10D1600078253032782530327825303278253032C3
:10D17000780000007373770010B5A0F54342503A71
:10D1800004D0A0F56A42603A02D002E0002000E03C
:10D1900001200C4A012492F8BF3031B100B10120C6
:10D1A0008440A34382F8BF3010BDD943C9B282F88E
:10D1B000BF1000B101208440A143C84382F8BF00E2
:10D1C00010BD0000880E0020A0F54341503904D066
:10D1D000A0F56A41603902D002E0002000E00120A1
:10D1E00005490122824091F8BF10114201D101206E
:10D1F0007047002070470000880E00201CB51048C2
:10D200004CF25034C2788178CDE90012437802782C
:10D2100040F25B712046FDF753FC0A49B1F8C000AB
:10D22000A0420BD0CA788878CDE900024B780A7802
:10D23000B1F84A104EF66020FDF742FC1CBD00001C
:10D2400044000020880E002070B50F4C8318A342C4
:10D2500001D9032070BDA2B1012400230BE00578A1
:10D260000E78AE4204D0FF2D01D0022070BD002404
:10D27000401C491C5B1C9342F1D3012C01D00120BE
:10D2800070BD002070BD00000000040838B5012109
:10D290004020FDF7F5F9022000F034F8032000F0FB
:10D2A00031F8042000F02EF84FF4FA7000F04DFD34
:10D2B000042000F03BF803208DF8020010208DF8C8
:10D2C000030001200E4CADF8000069462046FCF733
:10D2D00007FD0820ADF8000069462046FCF700FD78
:10D2E0000220ADF8000069462046FCF7F9FC042056
:10D2F000ADF8000069462046FCF7F2FC38BD00009E
:10D3000000180140401E084910F0FF0007D0012816
:10D3100007D0022806D0032805D1042002E001200E
:10D3200000E008200860704710180140401E0849BE
:10D3300010F0FF0007D0012807D0022806D00328EC
:10D3400005D1042002E0012000E0082008607047B9
:10D35000141801400C49012809D002280BD00328D9
:10D360000ED004280BD1086880F0040006E008689D
:10D3700080F0010002E0086880F008000860704753
:10D38000086880F00200F9E70C18014010B5094C5C
:10D390008318A34202D80AB1002306E0012010BD81
:10D3A00010F8014B01F8014B5B1C9342F8D30020AD
:10D3B00010BD0000000004082DE9F0418846044635
:10D3C0001646204904253044884202D8BEB3F007EF
:10D3D00002D00120BDE8F08141462046FFF734FF2E
:10D3E00007002DD0012080F31088FCF755FC352074
:10D3F000FCF7F8FB022F05D12046FCF7F9FB0546A8
:10D4000004281AD100270EE008EB470118F817008E
:10D41000497840EA01212046FCF724FC054604280F
:10D4200004D1A41C7F1CB7EB560FEDD3FCF712FC04
:10D43000002080F31088042D02D00220CAE7FFE705
:10D440000020C7E7000004082DE9FC5F8346A1A087
:10D45000D67800680090A0A0DFF880820068019074
:10D46000B8F8000054181546B04202D1A21F01219D
:10D47000CEE0DFF86CA29B4A012E07D0022E60D0CE
:10D4800071D94FF00007A1F10B09E0E04FF0000067
:10D490000146C8F8080000BF05EB01034FEAC107C9
:10D4A000DB7901F1010103FA07F389B243EA0000D5
:10D4B0000429F1D38A49C8F8080008390844904281
:10D4C00005D989A0FBF780FAA21F0421A0E0FCF790
:10D4D000E3FB3520FCF786FBD8F80800C146083886
:10D4E000410503D0012101EBD02000E0C00A8046B5
:10D4F00000270CE00AEBC720FCF77AFB042805D0D4
:10D500007FA0FBF761FAA21F022181E07F1C474543
:10D51000F0D30021C9F80410A9F80060C9F80CA0E4
:10D520006979AA797BA001EB02218AB2A9F80220CD
:10D53000D9F808100839FBF747FA80A0FBF744FA3E
:10D5400094E700276B46E81913F807C04079604557
:10D550000BD001A8A21FC15D584600F06DF93946F5
:10D560007DA0FBF731FABDE8FC9F7F1CFFB2042FC2
:10D57000E9D3287B60B1D5F80D007F4B1840B0F19E
:10D58000005F0ED07DA0FBF71FFAA21F08213FE02D
:10D59000A21F0D21584600F04FF97EA0FBF714FAA8
:10D5A000E1E70027A1F1130928E04E49D8F80C0063
:10D5B000884207D97EA0C8F80CA0FBF705FAA21F85
:10D5C000072125E0E9198B7B497B01EB032189B217
:10D5D000FCF748FBD8F80C20921CC8F80C20D8F8AF
:10D5E0000410891CC8F80410042805D079A0FBF7A2
:10D5F000EBF9A21F03210BE0BF1CBFB24F45D4DBE8
:10D60000A8F8006078A0D8F80410FBF7DDF92DE742
:10D61000584600F011F9A6E73249D8F80C008842C4
:10D62000C8D8EB1999795B7903EB012189B2FCF732
:10D6300019FBD8F80C20921CC8F80C20D8F804105C
:10D64000891CC8F804100428D0D1BF1CBFB24F45B4
:10D65000E2DBA8F80060454663A0D8F80410FBF7A9
:10D66000B3F9D5E901100838814224D16988701EC8
:10D67000884220D119490422091D1A48FFF79CFE4F
:10D6800028B15FA0FBF7A0F9A21F0521C0E761A0A8
:10D69000FBF79AF941F2883000F057FB012080F344
:10D6A000138863480168634A01F4E0611143016033
:10D6B000BFF34F8FFEE7A21F0121584600F0BCF8D0
:10D6C00068888642A7D1A21F0121584600F0FEF8C3
:10D6D00049E7000001020101090A0B0CD00D0020EE
:10D6E0000040020800F003086669726D7761726598
:10D6F000206C656E206572726F722E0D0A0000003C
:10D7000065726173657220666C6173682066616919
:10D710006C0D0A006669726D776172655F6C656E8B
:10D720003A25642C746F74616C207061636B61675F
:10D7300065206E756D3A25640D0A0000657261738F
:10D74000657220666C6173682053756365737366D8
:10D75000756C0D0A000000006669726D7761726574
:10D760002074797065206572726F7220636F6465D2
:10D770003A25640D0A0000000000FE2F6669726DF4
:10D78000776172652074797065206572726F722E90
:10D790000D0A00006669726D7761726520766572A8
:10D7A00073696F6E206572726F720D0A000000005F
:10D7B0007772697465206669726D77617265206F32
:10D7C000766572206261636B7570616472722E0D92
:10D7D0000A000000777269746520666C61736820C6
:10D7E0006661696C0D0A0000646F776E6C6F61642E
:10D7F00020253664206279746573206F6B0D0A00F2
:10D80000777269746520666C6167206661696C0D6A
:10D810000A0000000D0A52656164792074206F20AF
:10D820007265626F6F742E2E2E2E2E2E2E0D0A0014
:10D830000CED00E00400FA0570B586B014460D4604
:10D8400006461422194901A8FAF721FD3A208DF85D
:10D8500006008DF80F5016480025ADF8075050F817
:10D86000DA1FCDF809108088ADF80D00206804900B
:10D870009DF805109DF80400022202EB01210844E6
:10D8800081B201A8FFF7E2F99DF80510ADF8140088
:10D8900004229DF8040002EB01214318009501AA1F
:10D8A00004A1304602F0A0FB06B070BDE85B0108A1
:10D8B000880E00202F696F745F67617465776179E6
:10D8C0002F7570646174652F61636B0070B586B0ED
:10D8D00014460D46064614221C4901A8FAF7D7FC47
:10D8E0003A208DF806008DF80F5019480025ADF844
:10D8F000075050F8DA1FCDF809108088ADF80D00F8
:10D90000206804909DF810009DF80510401C8DF8CB
:10D9100010009DF80400022202EB0121084481B2AC
:10D9200001A8FFF793F99DF80510ADF81400042243
:10D930009DF8040002EB01214318009501AA05A1FE
:10D94000304602F051FB06B070BD0000FC5B0108E0
:10D95000880E00202F696F745F6761746577617945
:10D960002F7570646174652F61636B0030B5044678
:10D9700006480023026803E012F8015B25705B1C77
:10D980008B42F9DB0260084630BD0000EC0D002040
:10D990002DE9F04F4369834691461889DBF804204E
:10D9A000C00000EBC1045B89A058DB0003EBC101A0
:10D9B0008F184069396889B00088D1F808A000261E
:10D9C000C0F30A01A9F80010354689F8026000206A
:10D9D0000490059006EB46021423396803EB82029B
:10D9E0008A581368190C13F0FF042ED02B190793D3
:10D9F000402B2AD8A4F1010C012303EBDC0CCDF859
:10DA000018C01288CDE902030DF1200C0DF11808A1
:10DA1000CDE9008CC2F3072204AB5846FDF73EFE69
:10DA200018B1FF2009B0BDE8F08F09EBD502121D37
:10DA30000092002005F00701CDE9011000232046E7
:10DA40001A4604A9FBF7B4FB079D761C9AF8000060
:10DA5000F6B2B042BBD801206D1E00EBD50089F8AC
:10DA600003000020DEE700002DE9FF5F0022914661
:10DA7000924614469346174606460D46644A0023CE
:10DA8000FAF7D4FB86460092039163486149CDE9D9
:10DA9000013000204FF4C87222E000BF07F26C731F
:10DAA000B3FBF2FC02FB1C3CBCF1000F32D04FF088
:10DAB000640CB3FBFCF80CFB18330BB1BB0729D08B
:10DAC000761A65EB000540F26D1819EB08094AF16A
:10DAD00000039A467F1C0BF10103BFB21FFA83FBC0
